{
  "contractName": "DataStore",
  "abi": [
    {
      "constant": false,
      "inputs": [
        {
          "name": "Id",
          "type": "uint256"
        },
        {
          "name": "Name",
          "type": "string"
        },
        {
          "name": "Secret",
          "type": "string"
        }
      ],
      "name": "AddNewData",
      "outputs": [],
      "payable": false,
      "stateMutability": "nonpayable",
      "type": "function"
    },
    {
      "constant": true,
      "inputs": [
        {
          "name": "number",
          "type": "uint16"
        }
      ],
      "name": "GetDataByNumber",
      "outputs": [
        {
          "name": "",
          "type": "string"
        },
        {
          "name": "",
          "type": "uint256"
        },
        {
          "name": "",
          "type": "uint256"
        },
        {
          "name": "",
          "type": "uint256"
        },
        {
          "name": "",
          "type": "string"
        }
      ],
      "payable": false,
      "stateMutability": "view",
      "type": "function"
    },
    {
      "constant": true,
      "inputs": [],
      "name": "GetMapCount",
      "outputs": [
        {
          "name": "",
          "type": "uint16"
        }
      ],
      "payable": false,
      "stateMutability": "view",
      "type": "function"
    }
  ],
  "bytecode": "0x60606040526000600160006101000a81548161ffff021916908361ffff160217905550341561002d57600080fd5b6106c38061003c6000396000f300606060405260043610610057576000357c0100000000000000000000000000000000000000000000000000000000900463ffffffff16806308590b1d1461005c578063a495b90014610105578063c60fabc414610226575b600080fd5b341561006757600080fd5b610103600480803590602001909190803590602001908201803590602001908080601f0160208091040260200160405190810160405280939291908181526020018383808284378201915050505050509190803590602001908201803590602001908080601f01602080910402602001604051908101604052809392919081815260200183838082843782019150505050505091905050610257565b005b341561011057600080fd5b61012a600480803561ffff16906020019091905050610396565b604051808060200186815260200185815260200184815260200180602001838103835288818151815260200191508051906020019080838360005b83811015610180578082015181840152602081019050610165565b50505050905090810190601f1680156101ad5780820380516001836020036101000a031916815260200191505b50838103825284818151815260200191508051906020019080838360005b838110156101e65780820151818401526020810190506101cb565b50505050905090810190601f1680156102135780820380516001836020036101000a031916815260200191505b5097505050505050505060405180910390f35b341561023157600080fd5b610239610576565b604051808261ffff1661ffff16815260200191505060405180910390f35b61025f61058e565b83816020018181525050828160000181905250818160800181905250428160600181815250506000600160009054906101000a900461ffff1661ffff161415156102d95760008060018060009054906101000a900461ffff160361ffff168152602001908152602001600020600101548160400181815250505b80600080600160009054906101000a900461ffff1661ffff168152602001908152602001600020600082015181600001908051906020019061031c9291906105ca565b5060208201518160010155604082015181600201556060820151816003015560808201518160040190805190602001906103579291906105ca565b509050506001600081819054906101000a900461ffff168092919060010191906101000a81548161ffff021916908361ffff1602179055505050505050565b61039e61064a565b60008060006103ab61064a565b6000808761ffff1681526020019081526020016000206000016000808861ffff168152602001908152602001600020600101546000808961ffff168152602001908152602001600020600201546000808a61ffff168152602001908152602001600020600301546000808b61ffff168152602001908152602001600020600401848054600181600116156101000203166002900480601f0160208091040260200160405190810160405280929190818152602001828054600181600116156101000203166002900480156104c05780601f10610495576101008083540402835291602001916104c0565b820191906000526020600020905b8154815290600101906020018083116104a357829003601f168201915b50505050509450808054600181600116156101000203166002900480601f01602080910402602001604051908101604052809291908181526020018280546001816001161561010002031660029004801561055c5780601f106105315761010080835404028352916020019161055c565b820191906000526020600020905b81548152906001019060200180831161053f57829003601f168201915b505050505090509450945094509450945091939590929450565b6000600160009054906101000a900461ffff16905090565b60a0604051908101604052806105a261065e565b81526020016000815260200160008152602001600081526020016105c461065e565b81525090565b828054600181600116156101000203166002900490600052602060002090601f016020900481019282601f1061060b57805160ff1916838001178555610639565b82800160010185558215610639579182015b8281111561063857825182559160200191906001019061061d565b5b5090506106469190610672565b5090565b602060405190810160405280600081525090565b602060405190810160405280600081525090565b61069491905b80821115610690576000816000905550600101610678565b5090565b905600a165627a7a72305820ded9919e4d0cc757a5598a493ae703927e824d9c55f9194a6847dc9fab33ff2f0029",
  "source": "pragma solidity ^0.4.17;\n\ncontract DataStore {\n    struct Data {\n        string Name;\n        uint Id;\n        uint PreviousId;\n        uint Timestamp;\n        string Secret;\n    }\n\n    mapping(uint => Data) Map;\n    uint16 MapCount=0;\n\n    function AddNewData(uint Id, string Name, string Secret) public {\n        Data memory newData;\n        newData.Id = Id;\n        newData.Name = Name;\n        newData.Secret = Secret;\n        newData.Timestamp = now;\n\n        if (MapCount != 0) {\n            newData.PreviousId = Map[MapCount-1].Id;\n        }\n\n        Map[MapCount] = newData;\n        MapCount++;\n    }\n\n    function GetMapCount() public view returns (uint16) {\n        return MapCount;\n    }\n\n    function GetDataByNumber(uint16 number) public view returns (string, uint, uint, uint, string) {\n        return (Map[number].Name, Map[number].Id, Map[number].PreviousId, Map[number].Timestamp, Map[number].Secret);\n    }\n}\n",
  "sourcePath": "/mnt/EXT380/Pers/projects/personal/blockchain-demo-api/contracts/DataStore.sol",
  "compiler": {
    "name": "solc",
    "version": "0.4.18+commit.9cf6e910.Emscripten.clang"
  },
  "schemaVersion": "1.0.1",
  "updatedAt": "2018-01-11T18:54:45.463Z"
}